:060000000A128A110C280F
:10000800FE00030EF3000A08F4000A128A116C2895
:100018000A128A110F28F501F601F701F801830188
:100028000A128A11B2280130831603178800890141
:100038000130831603138500831203138501831689
:10004800031387018312031387018316031388019F
:100058008312031388018316031389018312031380
:100068008901831603130F088F3940388F000F1446
:100078008B170B178B151614961416150B10831265
:1000880003130C13831603130C1706148614061592
:100098008113151495141515831203131F083F397E
:1000A80040389F00831603131F129F12C330831218
:1000B80003139F05831603139F13831203131F143F
:1000C800023083120313A000A00B68280000080068
:1000D800831203130C1F7128722882281F0CF20048
:1000E800720C0F39003A031D7A287B2881281E08D4
:1000F800F2007208F800780887000C130B1C85289A
:100108008628AB28061889288A288E28F501F60142
:100118000910AA2886189128922899280130F500F4
:100128000030F60009146300AA2806199C289D28A7
:10013800AA28F501F60109107808F2007208F00003
:1001480077080A128A11D8200A128A110B1074082B
:100158008A00730E8300FE0E7E0E09000A128A11B1
:1001680017200A128A1175087604031DBC28BD28B9
:10017800CB28831203139F18C228C328CB289F14A7
:10018800023083120313A100A10BC82800007708CE
:100198000A128A11ED200A128A11831203138800A9
:1001A800B7280A128A110C28F10071088312031764
:1001B8008D0070088C00831603178C130C158B1395
:1001C80055308D00AA308D008C140C110B108B1734
:1001D800080083120313A0002008831203178D0060
:1001E800831603178C130C14831203170C080800CA
:08400000FF3FFF3FFF3FFF3FC0
:04400E00D420FF3F7C
:00000001FF
